:1000000005C1000030C100002EC100002CC100005D
:100010002AC1000028C1000026C1000024C1000040
:1000200022C1000020C100001EC100001CC1000050
:100030001AC1000018C1000016C1000014C1000060
:1000400012C100000C943B0D0EC100000CC1000059
:100050000AC1000008C1000006C100000C9466152A
:1000600002C100000C94A8180C94F819FCC0000000
:10007000FAC00000F8C00000F6C00000F4C00000A4
:100080000C940E0DF0C00000EEC00000ECC00000AB
:100090000C94E8180C94371AE6C000000C94FC0E7F
:1000A000E2C00000E0C000000C94E10CDCC00000E5
:1000B000DAC00000D8C00000D6C000000C94B40C18
:1000C000D2C00000D0C00000CEC000000C9428199F
:1000D0000C94761AC8C000000C9468190C94B51AD8
:1000E000C2C0000000002100240027002A002D00CB
:1000F0003000330001010000040107010A01000083
:100100002200250028002B002E00310034000201BF
:100110000000050108010B0100002000230026005B
:1001200029002C002F00320000010000030106010D
:10013000090105050505070508080808020202026D
:100140000A0A080804040404010101010101010173
:100150000303030303030303040707070C0C0C0C3E
:100160000C0C0C0C02020202060606060606060627
:100170000B0B0B0B0B0B0B0B0102102020080810B4
:100180002040102040800201020108040201010207
:1001900004081020408080402010080402018004E0
:1001A000020180402010080402010804020101023B
:1001B0000408102040800102040810204080000044
:1001C000090A02080B0C0D070603040100000000D9
:1001D000000000000000000000000000000000001F
:1001E0000000000000000000000011100F000000DF
:1001F00000000000000000000000000000000000FF
:10020000000000009701A20D2112251C11241FBE21
:10021000CFEFD1E2DEBFCDBF00E00CBF12E0A0E027
:10022000B2E0E4EEFCE300E00BBF02C007900D92E9
:10023000A03EB107D9F71BBE18E0A0EEB2E001C0A6
:100240001D92A73EB107E1F712E0CCE0D2E004C076
:100250002297FE010E946C1EC430D107C9F70E948C
:100260005C1D0C94701ECCCEFB01DC014150504053
:1002700048F001900D920020C9F701C01D92415035
:100280005040E0F70895FC0181E090E001900616EF
:1002900009F4CF010020D1F701970895FB01519196
:1002A0005523A9F0BF01DC014D9145174111E1F73C
:1002B00059F4CD010190002049F04D9140154111B4
:1002C000C9F3FB014111EFCF81E090E00197089560
:1002D000482F803118F52091E0023091E102672B20
:1002E00081F481E090E002C0880F991F4A95E2F7FF
:1002F00080959095282339233093E1022093E002E2
:10030000089581E090E002C0880F991F4A95E2F7B6
:10031000282B392B3093E1022093E0020895893095
:1003200028F4E82FF0E0EE51FD4F60830895CF935D
:10033000DF93C2E1D4E0CE010E943E0A239684E01E
:10034000C23AD807C1F7DF91CF910895EF92FF929B
:100350000F931F93CF93DF93062F893008F078C057
:1003600090E00196682F660F660F660F019767345D
:1003700008F066E423E0880F991F2A95E1F7F82E2C
:10038000482F51E0EE24A02FB0E0C1E0D0E01EC025
:10039000842F82508434C0F4242F30E0F901EC50D3
:1003A000FD4F8081823080F4E52AF901EE0FFF1FB6
:1003B000ED5BFC4F11821082852F90E08A239B23F6
:1003C000892B11F0D183C083550F4F5F461700F37F
:1003D0001E2DE0FE05C0602F61708F2D0E94461813
:1003E00011FF06C0602F62708F2D8F5F0E9446182C
:1003F00012FF06C0602F64708F2D8E5F0E9446181A
:1004000013FF06C0602F68708F2D8D5F0E94461805
:1004100014FF06C0602F60718F2D8C5F0E944618FC
:1004200015FF06C0602F60728F2D8B5F0E944618EB
:1004300016FF06C0602F60748F2D8A5F0E944618D9
:10044000E7FE06C000788F2D895F602F0E94461856
:10045000DF91CF911F910F91FF90EF9008950F932F
:100460001F93CF93DF93982F8B01863450F5C82FBD
:10047000D0E0FE01EC50FD4FE081E33091F0E4303C
:1004800001F592509033B8F49E0122503040C901DA
:10049000880F991F820F931F8E5E9B4F0E94D60A72
:1004A0000AC082508C3018F08A52833020F4892F91
:1004B000B8010E94B516CC0FDD1FCD5BDC4F198350
:1004C0000883DF91CF911F910F910895AF92BF9252
:1004D000DF92EF92FF920F931F93DF93CF930F92D0
:1004E000CDB7DEB7D82E7B01082F10E0F801EC5015
:1004F000FD4F8081863061F480910F04882341F0A4
:100500006630710529F010920F048FEF8093B802C6
:100510009D2D925099839033B0F4E4E0EE16F104EF
:1005200091F0C80102975C01AA0CBB1CA80EB91E71
:1005300082E194E0A80EB91EC5010E94C40A882376
:1005400011F0C501B5D74D2D46534031B8F4209177
:10055000E0023091E10292E0E916F10409F0D4C022
:1005600081E090E0042E02C0880F991F0A94E2F700
:10057000282B392B3093E1022093E002E981E43407
:1005800030F5ED2DE695E695E695980127703070EB
:10059000E114F10471F4F0E0E65CFC4F81E090E0DE
:1005A00002C0880F991F2A95E2F72081282B20830B
:1005B0000EC0F0E0E65CFC4F81E090E002C0880FE6
:1005C000991F2A95E2F78095208182238083F80184
:1005D000EE0FFF1FED5BFC4F11821082F2E0EF1671
:1005E000F104E1F083E0E816F1044CF4E114F104C5
:1005F00039F191E0E916F10409F07FC032C0E4E07E
:10060000EE16F10409F452C0F4E0EF16F104CCF157
:1006100086E0E816F10409F070C064C0403108F0CB
:1006200080C09981943440F48D2D60E00E9493172E
:100630008D2D60E00E9446180C501D4F82E05AC07C
:10064000F981F43408F06DC08D2D60E00E9493179D
:100650008D2D60E00E9446180C501D4FF80110824D
:1006600060C0F981F43408F05CC08D2D60E00E9418
:1006700046188D2D61E00E9493170C501D4F81E0AC
:1006800039C0F981FC3028F08D2D8C52833008F070
:1006900048C08D2D61E00E9493178D2D60E070E0C1
:1006A0000E94B5160C501D4F83E024C0F981F03331
:1006B000C0F5F801EC50FD4F84E08083C80102973B
:1006C0007C01EE0CFF1CE80EF91E82E194E0E80EBE
:1006D000F91EC70159D7882321F5C701B8010E9427
:1006E000ED0B1FC09CEED90EE1E0ED15D0F00C50E3
:1006F0001D4F86E0F801808314C087EF95E060E02D
:1007000072E00E949F120DC081E090E0042E02C0B2
:10071000880F991F0A94E2F7809590952823392332
:1007200029CF0F90CF91DF911F910F91FF90EF9004
:10073000DF90BF90AF9008951F9380910F0488239E
:1007400029F010920F048FEF8093B80280E090E0C0
:10075000FC01EE51FD4F1082FC01E65CFC4F108263
:10076000FC01E551FD4F108201968930910581F71A
:1007700010E0812F8653803120F4812F62E070E0F9
:1007800003C0812F61E070E0A1DE1F5F163489F79E
:100790001092E1021092E0021F9108950F931F93AF
:1007A00007EF15E0C80161E172E042E023E00E943A
:1007B0009313C80160EE4FE252E00E94DD11C801C0
:1007C00060E946EA51E00E94DD11C80160EC48E6AC
:1007D00051E00E94DD11C80160ED4FE851E00E9438
:1007E000DD11C80164EF46E652E00E94DD11C80148
:1007F00060EF45EE57E00E940112C8016FEF4CE92F
:1008000053E00E94FB11C80140E051EE60E070E04F
:100810000E94011491DF1F910F9108951F9310E022
:10082000812F8451823020F4812F66E070E04EDE0B
:100830001F5F1634A9F781E080930F048DE795E0E0
:100840000E943A0E1F9108951F93CF93DF93282F94
:10085000162FC82FD0E0FE01E65CFC4F80811823E4
:10086000442331F4FE01E551FD4F8081811751F0A1
:1008700087EF95E0622F412F50E00E947B11C55118
:10088000DD4F1883DF91CF911F910895FF920F9351
:100890001F938091E2028823C1F1F0903A030F2D5B
:1008A000F2FE8CC282E00E947818892B09F486C27D
:1008B00014E003FF06C083E00E947818892B09F03A
:1008C000186004FF06C084E00E947818892B09F0A4
:1008D000106105FF06C085E00E947818892B09F099
:1008E000106206FF06C086E00E947818892B09F086
:1008F0001064F7FE06C087E00E947818892B09F083
:10090000106880E0612F40E09FDF8091E302882340
:1009100009F448C0F0903B030F2DF0FE51C288E06F
:100920000E947818892B09F44BC211E001FF06C020
:1009300089E00E947818892B09F0126002FF06C036
:100940008AE00E947818892B09F0146003FF06C022
:100950008BE00E947818892B09F0186004FF06C00C
:100960008CE00E947818892B09F0106105FF06C001
:100970008DE00E947818892B09F0106206FF06C0EE
:100980008EE00E947818892B09F01064F7FE06C0EB
:100990008FE00E947818892B09F0106881E0612FA0
:1009A00040E052DF8091E402882309F448C0F090CF
:1009B0003C030F2DF0FE06C280E10E947818892BBF
:1009C00009F400C211E001FF06C081E10E9478181D
:1009D000892B09F0126002FF06C082E10E9478189C
:1009E000892B09F0146003FF06C083E10E94781888
:1009F000892B09F0186004FF06C084E10E94781872
:100A0000892B09F0106105FF06C085E10E94781866
:100A1000892B09F0106206FF06C086E10E94781853
:100A2000892B09F01064F7FE06C087E10E94781850
:100A3000892B09F0106882E0612F40E005DF80918A
:100A4000E502882309F448C0F0903D030F2DF0FE25
:100A5000BBC188E10E947818892B09F4B5C111E067
:100A600001FF06C089E10E947818892B09F0126005
:100A700002FF06C08AE10E947818892B09F01460F1
:100A800003FF06C08BE10E947818892B09F01860DB
:100A900004FF06C08CE10E947818892B09F01061D0
:100AA00005FF06C08DE10E947818892B09F01062BD
:100AB00006FF06C08EE10E947818892B09F01064A9
:100AC000F7FE06C08FE10E947818892B09F01068A4
:100AD00083E0612F40E0B8DE8091E602882309F4CC
:100AE00048C0F0903E030F2DF0FE70C180E20E94DE
:100AF0007818892B09F46AC111E001FF06C081E270
:100B00000E947818892B09F0126002FF06C082E269
:100B10000E947818892B09F0146003FF06C083E255
:100B20000E947818892B09F0186004FF06C084E23F
:100B30000E947818892B09F0106105FF06C085E234
:100B40000E947818892B09F0106206FF06C086E221
:100B50000E947818892B09F01064F7FE06C087E21E
:100B60000E947818892B09F0106884E0612F40E01A
:100B70006BDE8091E702882309F448C0F0903F03C0
:100B80000F2DF0FE25C188E20E947818892B09F408
:100B90001FC111E001FF06C089E20E947818892B6D
:100BA00009F0126002FF06C08AE20E947818892BC1
:100BB00009F0146003FF06C08BE20E947818892BAD
:100BC00009F0186004FF06C08CE20E947818892B97
:100BD00009F0106105FF06C08DE20E947818892B8C
:100BE00009F0106206FF06C08EE20E947818892B79
:100BF00009F01064F7FE06C08FE20E947818892B76
:100C000009F0106885E0612F40E01EDE8091E80267
:100C1000882309F448C0F09040030F2DF0FEDAC09D
:100C200080E30E947818892B09F4D4C011E001FFF9
:100C300006C081E30E947818892B09F0126002FF38
:100C400006C082E30E947818892B09F0146003FF24
:100C500006C083E30E947818892B09F0186004FF0E
:100C600006C084E30E947818892B09F0106105FF03
:100C700006C085E30E947818892B09F0106206FFF0
:100C800006C086E30E947818892B09F01064F7FEED
:100C900006C087E30E947818892B09F0106886E067
:100CA000612F40E0D1DD8091E902882309F448C03A
:100CB000F09041030F2DF0FE8FC088E30E9478185A
:100CC000892B09F489C011E001FF06C089E30E9465
:100CD0007818892B09F0126002FF06C08AE30E948F
:100CE0007818892B09F0146003FF06C08BE30E947B
:100CF0007818892B09F0186004FF06C08CE30E9465
:100D00007818892B09F0106105FF06C08DE30E9459
:100D10007818892B09F0106206FF06C08EE30E9446
:100D20007818892B09F01064F7FE06C08FE30E9443
:100D30007818892B09F0106887E0612F40E084DD86
:100D40008091EA02882309F44BC080914203082F66
:100D500080FF44C080E40E947818892B09F43EC0CB
:100D600011E001FF06C081E40E947818892B09F088
:100D7000126002FF06C082E40E947818892B09F0F5
:100D8000146003FF06C083E40E947818892B09F0E1
:100D9000186004FF06C084E40E947818892B09F0CB
:100DA000106105FF06C085E40E947818892B09F0C0
:100DB000106288E0612F40E047DD12C010E079CD7D
:100DC00010E0B4CD10E0FFCD10E04ACE10E095CE9B
:100DD00010E0E0CE10E02BCF10E076CF10E0C1CFD6
:100DE0001F910F91FF900895EF92FF920F931F9321
:100DF000CF93DF93F82EEB01E42E8FEF6F3F780750
:100E000019F4C0E0D0E011C08DE795E06F2D60D6F9
:100E10008DE795E06C2FDDD68DE795E01BD78091AF
:100E20001004909111040E9415168DE795E06F2D26
:100E30004E2D1ED70E2D10E08DE795E053D60817E6
:100E4000190789F4F092EF03C093F003C1EFD3E0E8
:100E50000C0F1D1F04C08DE795E04DD68993C01778
:100E6000D107C9F711C08DE795E03CD680179107EF
:100E70002CF487EF95E065E272E004C087EF95E01F
:100E80006DE472E00E949F1282E0E80E87EF95E029
:100E900067E74E2D2FEE33E00E94AD11DF91CF9129
:100EA0001F910F91FF90EF900895AF92BF92CF9254
:100EB000DF92EF92FF920F931F93CF93DF93E6DCC5
:100EC00004C087EF95E00E94E71287EF95E00E944B
:100ED0005511892BB1F70E94AE156093CF03709323
:100EE000D0038093D1039093D203A090D303B0900A
:100EF000D403C090D503D090D6032091B602309190
:100F0000B70279010027F7FC0095102F6A197B09B9
:100F10008C099D09E616F7060807190708F04AC06C
:100F2000EA0CFB1C0C1D1D1DE092D303F092D403B0
:100F30000093D5031093D603C4EFD2E01AEC10311E
:100F4000C0F488818230A9F48091E0029091E1029E
:100F5000012E02C0959587950A94E2F780FF09C09B
:100F6000812F0E948116AC0187EF95E0612F0E94CE
:100F700061111F5F2196103111F78091B80287FD32
:100F800019C010E00DC0F901EE0FFF1FE20FF31FB3
:100F9000E952FC4F6181808170E0428125DF1F5F53
:100FA000212F30E08091B802992787FD9095821714
:100FB00093074CF7DF91CF911F910F91FF90EF9026
:100FC000DF90CF90BF90AF900895BF92CF92DF9205
:100FD000EF92FF920F931F93CF93DF93162FEA01A7
:100FE0008F3609F446C1803750F48B3609F460C15E
:100FF0008D3609F4C1C1893609F036C216C286376A
:1010000069F0873720F4803709F02EC2DFC08837B7
:1010100009F4C3C08A3709F027C210C1898185FF4E
:1010200005C087EF95E064E772E050C06881887181
:10103000883041F1893018F4882341F015C280319D
:1010400009F43CC0883109F00FC260C08DE795E01B
:101050003FD502E00DC0FE01E00FF11D61816795F3
:10106000662767958081680F8DE795E0B2D50E5FA2
:10107000011788F38DE795E0EDD586E490E00E94B6
:101080001516F2C19B818A81163071F497959927C4
:101090009795980F4D814795442747958C81480F28
:1010A000862F692F70E008C0979599279795980F1C
:1010B000862F6FEF7FEF492F97DED6C18091B80260
:1010C00087303CF087EF95E060EA72E00E949F1263
:1010D000CBC18F5F8093B802992787FD9095FC0163
:1010E000EE0FFF1FE80FF91FE952FC4F60838B8161
:1010F0008795882787959A81890F81838D81879528
:10110000882787959C81890F8283AEC15091B80250
:10111000151634F420E0C52FDD27C7FDD09511C08A
:101120008FEF8093B802A0C1FC01EE0FFF1FE80F04
:10113000F91FE952FC4F6083662311F0422F24C04F
:101140002F5F822F90E0C817D90774F740E01CC0CA
:101150004830C8F4C9010196D901AA0FBB1FA20FDC
:10116000B31FA952BC4FFC01EE0FFF1FE80FF91F80
:10117000E952FC4F80818C93808111968C9311975A
:10118000828112968C934F5F242F30E0C217D307D1
:10119000FCF651505093B80267C18981682F70E006
:1011A0007695762F6627779567958881680F711DEC
:1011B0006115710521F07093110460931004809102
:1011C0000F04882309F050C129DB4EC1653008F4B3
:1011D0004BC1F880C980EA80BB80DC808F2D8250B3
:1011E000803308F041C10F2D10E0C8010297EC01D7
:1011F000CC0FDD1FC80FD91FCE5EDB4FCE01C4D18F
:10120000882311F0CE0154D14E2D50E05695542F25
:101210004427579547954C0D511D2D2D30E036959F
:10122000322F2227379527952B0D311DCE01B8017E
:1012300024D28F2D64E070E049D916C1623008F4E1
:1012400013C1898190E09695982F88279795879567
:101250002881820F911D9093B7028093B6020A975E
:101260000CF002C18AE090E09093B7028093B6023E
:10127000FBC0623008F4F8C08981682F70E012303A
:10128000A1F08A8190E09695982F88279795879569
:10129000682B792B133049F02B81922F9295990F5F
:1012A000990F907C80E0682B792B8881D8D8DCC09E
:1012B0008BE598E060EF0E94E51B8BE598E06CE61B
:1012C0000E94E51B0EEF16C00434A0F48BE598E0F5
:1012D00060E00E94E51B8BE598E061E00E94E51B61
:1012E0008BE598E061E00E94E51B8BE598E061E00A
:1012F0000E94E51B802F8453803150F48BE598E0E9
:1013000062E00E94E51B8BE598E06AE00E94E51B25
:101310000C3020F0802F8A52833050F48BE598E017
:1013200063E00E94E51B8BE598E068E00E94E51B06
:10133000003350F48BE598E064E00E94E51B8BE5F8
:1013400098E06EE00E94E51B802F8251823050F4BD
:101350008BE598E066E00E94E51B8BE598E061E094
:101360000E94E51B8BE598E06FE70E94E51B0F5F8D
:10137000043409F0A9CF73C0662309F475C008814D
:101380008BE598E060EF0E94E51B8BE598E06EE648
:101390000E94E51B8BE598E0602F0E94E51B063458
:1013A00008F05DC0C02FD0E0FE01EC50FD4F8BE592
:1013B00098E060810E94E51B8E01000F111F0D5BFC
:1013C0001C4FF801608170E06F7770708BE598E0DA
:1013D0000E94E51BF80160817181CB018078892B27
:1013E00059F0660F672F661F770B70E06F7770708C
:1013F0008BE598E00E94E51BCC0FDD1FCD5BDC4F39
:1014000028813981C9018070907C892B41F1330F8B
:10141000220B330F322F221F622F70E06F77707014
:101420008BE598E00E94E51B1AC08BE598E060EF21
:101430000E94E51B8BE598E06AE60E94E51BCAEC7A
:10144000DFEFC03118F06FE770E001C0BE018BE53F
:1014500098E00E94E51B2196C031D10591F78BE5FC
:1014600098E067EF0E94E51BDF91CF911F910F91EC
:10147000FF90EF90DF90CF90BF900895FC01809196
:10148000A204803390F480838F5F8093A204815004
:1014900090E0FC01EE0FFF1FE80FF91FED55FB4F29
:1014A00088EB9BE09283818308958FEF808308957A
:1014B000DC018C9190E0FC01EE0FFF1FE80FF91F9B
:1014C000ED55FB4F80818F7B80838C916CE00E9477
:1014D000FA1D90E0AC01440F551F480F591F440FEF
:1014E000551F440F551F20E030E0C901840F951FA0
:1014F000FC01EE0FFF1FE80FF91FED55FB4F808138
:1015000086FD05C02F5F3F4F2C30310571F70895E0
:10151000FC0120812033B8F58181992787FD9095C2
:1015200048E850E0481B590B440F551F440F551F06
:101530006417750784F08281992787FD909548E5A7
:1015400052E0481B590B440F551F440F551F641799
:1015500075070CF4AB0142505040CA01AA2797FD11
:10156000A095BA2F880F991FAA1FBB1F4FB7F894D9
:1015700030E0F901EE0FFF1FE20FF31FED55FB4FB7
:10158000928381834FBF0895FC01808190E0FC012C
:10159000EE0FFF1FE80FF91FED55FB4F808182957D
:1015A00086958695817009F081E00895AF92BF928B
:1015B000CF92DF92EF92FF920F931F93CF93DF931F
:1015C000EC019B0182E0603278070CF048C077FFA5
:1015D00003C020E030E005C0653B710514F024EB4A
:1015E00030E000D00F92B901882777FD8095982FC1
:1015F0002981332727FD3095E8E8AE2EB12CA21AB9
:10160000B30AAA0CBB1CAA0CBB1CCC24B7FCC0940C
:10161000DC2CEA81FF27E7FDF09528E532E02E1B60
:101620003F0B220F331F220F331F442737FD4095F6
:10163000542FEDB7FEB7218332834383548320E0D8
:1016400030E040E050E004EBE02EF12C012D112DB4
:101650000E94941D9B010F900F900F900F90CE0150
:10166000B90156DFDF91CF911F910F91FF90EF905D
:10167000DF90CF90BF90AF900895CF92DF92EF921E
:10168000FF921F93CF93DF93EC01162F7A0169012C
:101690008881803308F093C0862F61E00E94931701
:1016A000888190E0FC01EE0FFF1FE80FF91FED5558
:1016B000FB4F1F738081807C812B808380E292E0CE
:1016C0008E199F0964E070E00E94061E698380E61F
:1016D00099E08C199D0964E070E00E94061E6A83FF
:1016E000A8818A2F6CE00E94FA1D682F70E0AB0180
:1016F000440F551F460F571F440F551F440F551FCA
:1017000020E030E0C901840F951FFC01EE0FFF1FA0
:10171000E80FF91FED55FB4F808186FD44C02F5F18
:101720003F4F2C30310571F753C01092800082E09A
:10173000809381001092850010928400B19A80916C
:101740006F00826080936F002EC06230710569F473
:101750001092900082E08093910010929500109278
:10176000940088BB809371001EC06330710569F4DA
:101770001092A00082E08093A1001092A500109228
:10178000A40089BB809372000EC0672B61F4109295
:10179000200182E080932101109225011092240102
:1017A0008ABB809373008A2F90E0FC01EE0FFF1F2D
:1017B000E80FF91FED55FB4F80818064808388819D
:1017C000DF91CF911F91FF90EF90DF90CF90089520
:1017D0006130710509F0B9CFA8CF40E252E020E6B0
:1017E00039E04BCFEF92FF920F931F93CF93DF938C
:1017F0008B017A01EC01DC01AD5CBA4F8C9187FF63
:1018000004C0FB011182108237C0AE01440F551F86
:101810004C0F5D1F440F551F440F551F2C9133274C
:1018200027FD3095240F351F8091A20490E02817E2
:10183000390714F58C91992787FD9095840F951F92
:10184000FC01EE0FFF1FE80FF91FED55FB4F8081E4
:1018500086FF12C08C91992787FD9095840F951F64
:10186000FC01EE0FFF1FE80FF91FED55FB4F8081C4
:101870008F7360E00E944618DE01AD5CBA4F8C9118
:101880008F5F8C93AE01440F551F4C0F5D1F440FAB
:10189000551F440F551F2C91332727FD3095240FDA
:1018A000351F8091A20490E0281739070CF04DC035
:1018B0008C918C300CF049C0F801208131818C91E1
:1018C000992787FD9095840F951FFC01EE0FFF1F50
:1018D000E80FF91FED55FB4F81819281280F391FC9
:1018E000F701318320838C91992787FD9095840F90
:1018F000951FFC01EE0FFF1FE80FF91FED55FB4F81
:10190000808186FF2AC08C91992787FD9095840F4E
:10191000951FFC01EE0FFF1FE80FF91FED55FB4F60
:1019200080818F7361E00E94461817C080E49CE9B3
:1019300004C0F801808191810496F701918380832E
:10194000CD5CDA4F8FEF888308C0F80180819181E8
:10195000049680549C4950F3ECCFDF91CF911F91B6
:101960000F91FF90EF9008951F920F920FB60F9274
:101970000BB60F9211242F933F934F935F936F9366
:101980007F938F939F93AF93BF93EF93FF9380E0E9
:1019900090E064E271E048E251E024DFFF91EF91D2
:1019A000BF91AF919F918F917F916F915F914F9177
:1019B0003F912F910F900BBE0F900FBE0F901F9075
:1019C00018951F920F920FB60F920BB60F9211241B
:1019D0002F933F934F935F936F937F938F939F9337
:1019E000AF93BF93EF93FF9383E090E064EA70E0DE
:1019F00048EA50E0F7DEFF91EF91BF91AF919F91E0
:101A00008F917F916F915F914F913F912F910F90A7
:101A10000BBE0F900FBE0F901F9018951F920F9244
:101A20000FB60F920BB60F9211242F933F934F9343
:101A30005F936F937F938F939F93AF93BF93EF9336
:101A4000FF9382E090E064E970E048E950E0CADE8C
:101A5000FF91EF91BF91AF919F918F917F916F9186
:101A60005F914F913F912F910F900BBE0F900FBE42
:101A70000F901F9018951F920F920FB60F920BB6F2
:101A80000F9211242F933F934F935F936F937F9304
:101A90008F939F93AF93BF93EF93FF9381E090E079
:101AA00064E870E048E850E09DDEFF91EF91BF915F
:101AB000AF919F918F917F916F915F914F913F91E6
:101AC0002F910F900BBE0F900FBE0F901F90189587
:101AD00081E080937C056093590510927A051092FD
:101AE0007B0508952091580530E080915705281B0B
:101AF0003109C9010895409157058091580548174B
:101B000018F02FEF3FEF0AC0E42FF0E0E95CFA4F46
:101B10008081282F30E04F5F40935705C901089519
:101B2000E091570580915805E81718F0EFEFFFEFA7
:101B300006C0F0E0E95CFA4F8081E82FF0E0CF01C9
:101B4000089508951092800510927F0588EE93E025
:101B5000A0E0B0E08093810590938205A093830577
:101B6000B093840584EC92E090937E0580937D058C
:101B70000895CF92DF92EF92FF920F931F93CF932E
:101B8000DF937C016B018A0180917C058823A1F0A1
:101B9000C0E0D0E00DC0D701ED91FC91D601AC0FB3
:101BA000BD1F0190F081E02DC7016C911995219620
:101BB000C017D10780F303C0CB01642F02D1C80145
:101BC000DF91CF911F910F91FF90EF90DF90CF9019
:101BD0000895DF93CF930F92CDB7DEB7FC016983F1
:101BE00080917C058823C9F080917B05803238F094
:101BF00081E090E09383828320E030E014C0809104
:101C00007A05E82FF0E0E65AFA4F998190838F5FCA
:101C100080937A0580937B0504C0CE01019661E034
:101C2000D0D021E030E0C9010F90CF91DF9108952D
:101C30000F93062F809159056AE575E040917B0569
:101C400021E06AD010927A0510927B0510927C05F3
:101C50000F91089561E0ECCF413208F040E2862F09
:101C600067E375E010D010925705809358050895EA
:101C700021E0F2CF109257051092580510927A0584
:101C800010927B054EC2382F413210F040E042C026
:101C9000809189058823E1F791E09093890520934D
:101CA0008B058FEF8093F6051092B105415040935C
:101CB000B2054F5F90938A0580918A05330F832B7D
:101CC00080938A0580918C05813041F410928C05B7
:101CD00080918A058093BB0085EC01C085EE8093DE
:101CE000BC00809189058130E1F38091B1058417B2
:101CF00010F44091B10520E030E00AC0FB01E20F92
:101D0000F31FD901AF56BA4F8C9180832F5F3F4F9D
:101D10002417A0F3842F08950F931F93582F122F89
:101D2000413210F081E04AC0809189058823E1F7B3
:101D300082E08093890500938B058FEF8093F605F1
:101D40001092B1054093B205A1E9B5E0FB0102C0D4
:101D500081918D938E2F861B8417D0F310928A0564
:101D600080918A05550F852B80938A0580918C057B
:101D7000813041F410928C0580918A058093BB00DC
:101D800085EC01C085EE8093BC00112321F0809189
:101D900089058230E1F38091F6058F3F11F480E0F0
:101DA0000DC08091F605803211F482E007C0809169
:101DB000F605803311F084E001C083E01F910F919C
:101DC0000895482F613210F081E0089580918905CF
:101DD000843011F082E008956093D405A3EBB5E060
:101DE000842F9C01F90102C081918D938E2F841B59
:101DF0008617D0F380E008951F920F920FB60F92CE
:101E00000BB60F9211242F933F934F935F936F93D1
:101E10007F938F939F93AF93BF93EF93FF938091A3
:101E2000B90090E0887F90708036910509F4F2C087
:101E300081369105CCF58832910509F47BC0893251
:101E40009105B4F48031910509F46FC08131910599
:101E50003CF4009709F447C1089709F04FC165C0E9
:101E60008831910509F466C0809709F047C182C0A6
:101E70008034910509F4A4C08134910544F4803381
:101E8000910509F482C0C89709F038C189C080352E
:101E9000910509F489C08835910509F496C0883404
:101EA000910509F02BC1AEC08839910509F413C121
:101EB00089399105ECF48837910509F4ABC089376D
:101EC00091054CF48836910509F4A4C0803791053A
:101ED00009F014C19FC08838910509F4FCC080390D
:101EE000910509F49DC08038910509F007C198C09B
:101EF000803B910509F4C6C0813B91054CF4803AC2
:101F0000910509F49FC0883A910509F0F7C0BAC05D
:101F1000803C910509F4E3C0883C910509F4DFC0D9
:101F2000883B910509F0EAC0C2C080918A05809380
:101F3000BB00CFC09091B1058091B205981768F4AD
:101F40009091B105E92FF0E0EF56FA4F8081809330
:101F5000BB009F5F9093B105BCC080918B05882327
:101F600009F44BC085ED8093BC008091BC0084FDDA
:101F7000FCCFC2C080E28093F60585ED8093BC0063
:101F80008091BC0084FDFCCFB7C080E38093F60550
:101F900085ED8093BC008091BC0084FDFCCFACC07B
:101FA00088E38093F6059BC08091B1059091BB00BA
:101FB000E82FF0E0EF56FA4F90838F5F8093B105E2
:101FC0009091B1058091B20582C08091B105909148
:101FD000BB00E82FF0E0EF56FA4F90838F5F8093BD
:101FE000B10580918B05882341F085ED8093BC007D
:101FF0008091BC0084FDFCCF7FC081E080938C0584
:1020000084EA6EC085ED8093BC008091BC0084FDA5
:10201000FCCF72C083E0809389051092F50559C00A
:102020008091F505803208F056C08091F5059091B9
:10203000BB00E82FF0E0EB52FA4F90838F5F809364
:10204000F50547C08091F505803230F4E091F50543
:10205000F0E0EB52FA4F108285ED8093BC00809146
:10206000BC0084FDFCCF109289056091F505E091DC
:102070008F05F091900585ED95E070E0199510922F
:10208000F5052DC084E0809389051092D305109248
:10209000D405E0918D05F0918E0519958091D405B8
:1020A000882329F481E08093D4051092B3059091A0
:1020B000D305E92FF0E0ED54FA4F80818093BB0007
:1020C0009F5F9093D3059091D3058091D405981785
:1020D00010F485EC01C085E88093BC000FC085EC4E
:1020E0008093BC0009C01092F60585ED8093BC007A
:1020F0008091BC0084FDFCCF10928905FF91EF9187
:10210000BF91AF919F918F917F916F915F914F910F
:102110003F912F910F900BBE0F900FBE0F901F900D
:1021200018951092890581E080938B0510928C059B
:1021300084E161E0ABD785E161E0A8D7E9EBF0E0AD
:1021400080818E7F808380818D7F808388E48093EF
:10215000B80085E48093BC000895EF92FF920F933E
:102160001F937C018B01DC01ED91FC91A081B18179
:102170006F772D913C91CF01F9011995D701ED9120
:10218000FC91A081B181000F012F001F110B0F776F
:102190002D913C91CF01602FF90119951F910F915D
:1021A000FF90EF900895FC010190F081E02DA08157
:1021B000B1812D913C91CF0160EFF90119950895FE
:1021C000FC010190F081E02DA081B1812D913C9125
:1021D000CF0167EFF901199508950F931F938C01B3
:1021E000DC01ED91FC91A081B1812D913C91CF0159
:1021F00069EFF9011995D801ED91FC91A081B181A8
:102200002D913C91CF0162E0F9011995D801ED9132
:10221000FC91A081B1812D913C91CF0163E0F90146
:1022200019951F910F9108951F93CF93DF93EC01A0
:102230008A818823B1F1CE01B6DFE881F981A081DE
:10224000B1812D913C91CF0169E7F9011995E881A0
:10225000F981A081B1812B813C814D915C91CF01AD
:10226000F9016081FA011995E881F981A081B181B4
:102270002B813C814D915C91CF01F9016181FA0183
:10228000199512E009C0EB81FC81E10FF11D60811D
:10229000CE0170E062DF1F5F8A811817A0F3CE01C4
:1022A0008FDFDF91CF911F910895FC01A081B18153
:1022B000ED91FC9111970480F581E02DCD011995E8
:1022C0000895EF92FF920F931F938C017A01DC0126
:1022D000ED91FC91A081B1816F70606E2D913C9168
:1022E000CF01F9011995C801B70137DF1F910F918F
:1022F000FF90EF900895EF92FF920F931F937C0150
:102300008A01DC01ED91FC91A081B1816F7060695F
:102310002D913C91CF01F9011995D701ED91FC91D7
:10232000A081B181602F6F772D913C91CF01F90190
:102330001995D701ED91FC91A081B181000F012F7A
:10234000001F110B2D913C91CF01602FF9011995C0
:102350001F910F91FF90EF900895DF92EF92FF92FF
:102360000F931F93CF93DF93EC01162FD42E022FE0
:10237000F32E19DFE881F981A081B1812D913C9183
:10238000CF01612FF9011995202F3F2DC9017C0143
:1023900010E007C0F70161917F01CE0170E0DDDE42
:1023A0001F5F1D15B8F3CE010BDFDF91CF911F9199
:1023B0000F91FF90EF90DF900895FC01603DA9F030
:1023C000613D28F4603959F0603CA1F40BC0603ED7
:1023D00019F0643F79F40CC054A743A7089556A799
:1023E00045A7089550AB47A7089552AB41AB089558
:1023F00054AB43AB0895FC016F3F11F456AB45ABB2
:102400000895FC0152AF41AF0895FC011582168278
:102410001782DC0180E018961C9218978F5F119646
:102420008032C9F710A612A611A605A8F6A9E02DBC
:10243000309709F019950895FC0171836083128229
:10244000E4CF87EF95E06BE578E0F6CF4F925F92AF
:102450006F927F928F929F92AF92BF92CF92DF92B4
:10246000EF92FF920F93DF93CF930F920F92CDB71E
:10247000DEB72B017A013A8329838DE061E053D5E1
:1024800000E089819A813C01882477FC8094982C13
:102490005701CC24B7FCC094DC2C0DC0C401B3019F
:1024A0006BD38DE061E0F2D5C601B50165D38DE057
:1024B00060E0ECD50F5F802F90E08415950574F3F4
:1024C0000F900F90CF91DF910F91FF90EF90DF90E1
:1024D000CF90BF90AF909F908F907F906F905F90C4
:1024E0004F9008950F931F938C018DE061E01BD5F1
:1024F000C80162E070E048E250E022ED30E0A6DF83
:102500006AEF70E080E090E037D3C80163E070E0EC
:1025100048E250E022ED30E099DF6DE770E080E0C6
:1025200090E02AD31F910F9108959A01FA0101902A
:102530000020E9F73197E41BF50B4E2F0ECFAB01CE
:1025400061E7F3CF1F93CF93DF93EC018885813749
:1025500029F0893779F5CE0167DE35C08FA998ADAE
:10256000892B89F189A59AA5019762E070E00E9404
:10257000061E162F862F90E074D1AC01DC0121E0FD
:1025800030E011C0FE01E20FF11D90859C932F5F9A
:10259000FE01E20FF11D8085879588278795890FB9
:1025A0008D932F5F3F5F311768F3EFA9F8ADCA0134
:1025B000199509C0E9ADFAAD309729F069A56150C8
:1025C0002996AE011995DF91CF911F910895CF9370
:1025D000DF93EC01A881B981ED91FC911197068000
:1025E000F781E02DCD011995AC0188A5882389F0EC
:1025F000473F510521F418A6CE01A4DF91C089A55B
:102600009AA5FE01E80FF91F408701969AA789A7AE
:1026100087C08D81882309F446C0403851050CF0ED
:1026200042C081508D83FE01E80FF11D4087882351
:1026300009F076C08E81882309F472C0803D49F18B
:10264000813D28F4803959F0803C59F51FC0803E07
:1026500019F0843F31F513C0EBA5FCA502C0EDA530
:10266000FEA53097F1F0688570E07695762F6627A5
:10267000779567958985680F711D8F8111C0EBA9CA
:10268000FCA9309771F06885898509C0EFA5F8A984
:1026900002C0E9A9FAA9309721F068858F8170E01E
:1026A00019951E823DC0403F510514F09A0106C0A5
:1026B0009A01207F3070842F8F708F83203E3105E8
:1026C000F1F0213E310554F4203C3105D1F0203D9C
:1026D0003105B9F02039310519F511C0243F310514
:1026E00071F0253F310524F4203F3105C9F40DC0B8
:1026F000293F310591F02F3F310591F40BC082E065
:1027000001C081E08D832E830BC081E088A71AA6CB
:1027100019A606C0CE0179DE03C087EF95E05DDD26
:10272000DF91CF910895AF92BF92CF92DF92EF9257
:10273000FF920F931F93CF93DF938C01D62EC72E5A
:10274000B42EA22E862F972F61EB72E00E944E01CD
:10275000EC018D2D9C2D6FE270E00E9443012097CB
:1027600079F07C010894E11CF11CE114F10441F0C2
:102770009E012E5F822F8E19D80112968C930FC066
:10278000AD2DBC2DFD0101900020E9F7ED19EF5FA3
:10279000D8011296EC932D2D3C2DC9017C01F80136
:1027A000828190E05ED0FC01D80114969C938E93B8
:1027B000139712968C911297E80FF11D10821396C1
:1027C000ED91FC911497B0821396ED91FC911497C2
:1027D000A18213968D919C91149712964C9150E082
:1027E000425050400296B7010E943401DF91CF91D0
:1027F0001F910F91FF90EF90DF90CF90BF90AF901F
:1028000008950F931F938C018BE598E0EDD6D801C6
:10281000ED91FC9180915D0890915E089383828395
:1028200080915F0890916008A0916108B091620862
:1028300084839583A683B78380916308909164080D
:10284000A0916508B091660880879187A287B387B9
:10285000C80148DEC801C1DCC801E6DC1F910F9148
:1028600008950F931F93CF93DF93BC01823091059E
:1028700010F462E070E0E091E508F091E608A0E075
:10288000B0E040E050E024C0808191818617970736
:10289000D0F08617970771F482819381109729F001
:1028A00013969C938E9312972CC09093E608809376
:1028B000E50827C04115510519F08417950718F44C
:1028C000EF018D01AC01DF01828193819C01F9014F
:1028D0003097D1F641155105F9F0CA01861B970BC7
:1028E0008430910580F48A819B810115110521F0C6
:1028F000F8019383828304C09093E6088093E508EF
:10290000FE01329645C0FE01E80FF91F61937193F5
:102910000297998388833CC08091E3089091E408F2
:10292000892B41F48091BB029091BC029093E40802
:102930008093E3084091BD025091BE0241155105BC
:1029400041F44DB75EB78091B9029091BA02481B2D
:10295000590B2091E3083091E40824173507B0F4AF
:10296000CA01821B930B8617970780F0AB014E5F5D
:102970005F4F8417950750F0420F531F5093E408A0
:102980004093E308F9016193719302C0E0E0F0E045
:10299000CF01DF91CF911F910F910895CF93DF93D6
:1029A0009C01009709F48FC0EC0122971B821A82C8
:1029B0006091E5087091E6086115710581F48881E0
:1029C0009981820F931F2091E3083091E408281722
:1029D000390739F5D093E408C093E30874C0DB01EC
:1029E00040E050E0AC17BD0708F1BB83AA83FE01AD
:1029F00021913191E20FF31FAE17BF0779F48D914A
:102A00009C911197280F391F2E5F3F4F39832883E0
:102A100012968D919C9113979B838A834115510542
:102A200071F4D093E608C093E5084DC012968D91DD
:102A30009C911397AD01009711F0DC01D3CFDA011F
:102A40001396DC93CE931297FA0121913191E20F04
:102A5000F31FCE17DF0769F488819981280F391F8A
:102A60002E5F3F4FFA01318320838A819B819383BC
:102A70008283E0E0F0E0DB0112968D919C91139748
:102A8000009719F0BC01FD01F6CFAB014E5F5F4F1F
:102A9000DB018D919C91840F951F2091E30830916B
:102AA000E4082817390779F4309729F41092E608DA
:102AB0001092E50802C01382128242505040509397
:102AC000E4084093E308DF91CF9108951F920F929D
:102AD0000FB60F9211242F933F938F939F93AF9331
:102AE000BF938091360690913706A0913806B09139
:102AF000390630913A060196A11DB11D232F2D5F95
:102B00002D3720F02D570196A11DB11D20933A06B7
:102B10008093360690933706A0933806B093390613
:102B20008091320690913306A0913406B09135061B
:102B30000196A11DB11D8093320690933306A09398
:102B40003406B0933506BF91AF919F918F913F911D
:102B50002F910F900FBE0F901F9018958FB7F8947C
:102B6000209136063091370640913806509139064B
:102B70008FBFB901CA0108959B01AC017FB7F894DA
:102B80008091320690913306A0913406B0913506BB
:102B900066B5A89B05C06F3F19F00196A11DB11D38
:102BA0007FBFBA2FA92F982F8827860F911DA11DAF
:102BB000B11D62E0880F991FAA1FBB1F6A95D1F74C
:102BC000BC012DC0FFB7F894809132069091330676
:102BD000A0913406B0913506E6B5A89B05C0EF3F3D
:102BE00019F00196A11DB11DFFBFBA2FA92F982F73
:102BF00088278E0F911DA11DB11DE2E0880F991F3E
:102C0000AA1FBB1FEA95D1F7861B970B885E9340DE
:102C1000C8F2215030404040504068517C4F21154F
:102C200031054105510571F60895019739F0880F76
:102C3000991F880F991F02970197F1F708957894CB
:102C400084B5826084BD84B5816084BD85B58260B1
:102C500085BD85B5816085BDEEE6F0E0808181604F
:102C60008083E1E8F0E0108280818260808380814F
:102C700081608083E0E8F0E0808181608083E1EB27
:102C8000F0E0808184608083E0EBF0E0808181600F
:102C90008083E1E9F0E080818260808380818160CF
:102CA0008083E0E9F0E0808181608083E1EAF0E008
:102CB000808182608083808181608083E0EAF0E0AF
:102CC000808181608083E1E2F1E0808182608083A5
:102CD000808181608083E0E2F1E080818160808397
:102CE000EAE7F0E080818460808380818260808375
:102CF0008081816080838081806880831092C100A0
:102D00000895382F863308F0365320917B00832FA7
:102D100086958695869590E08170907043E0880F47
:102D2000991F4A95E1F7277F282B20937B00377066
:102D30008091BF028295880F880F807C832B8093BF
:102D40007C0080917A00806480937A0080917A0080
:102D500086FDFCCF2091780040917900942F80E08F
:102D600030E0282B392BC90108951F93CF93DF93AF
:102D7000182FEB0161E0D7D0209709F4CAC0CF3FEC
:102D8000D10509F4C9C0E12FF0E0E254FE4F84916F
:102D9000893009F466C08A30B0F48430F1F18530AE
:102DA00040F4823059F1833070F5813009F0AEC0C3
:102DB00020C0873009F443C0883008F048C086300E
:102DC00009F0A4C034C08D3009F478C08E3038F4D6
:102DD0008B3009F45AC08C3008F066C04CC080318A
:102DE00009F480C0813109F487C08F3009F08EC0AA
:102DF0006FC084B5806884BDC7BD91C084B5806252
:102E000084BDC8BD8CC080918000806880938000A4
:102E1000D0938900C093880082C080918000806236
:102E200080938000D0938B00C0938A0078C08091FB
:102E3000B00080688093B000C093B30070C08091F0
:102E4000B00080628093B000C093B40068C08091ED
:102E50009000806880939000D0939900C093980070
:102E60005EC080919000806280939000D0939B0020
:102E7000C0939A0054C08091900088608093900025
:102E8000D0939D00C0939C004AC08091A0008068B0
:102E90008093A0008091A0008F7B8093A000D093AE
:102EA000A900C093A8003BC08091A00080628093DD
:102EB000A000D093AB00C093AA0031C08091A000C5
:102EC00088608093A000D093AD00C093AC0027C071
:102ED00080912001806880932001D0932901C093C4
:102EE00028011DC080912001806280932001D09331
:102EF0002B01C0932A0113C0809120018860809328
:102F00002001D0932D01C0932C0109C0C038D105F8
:102F10001CF4812F60E002C0812F61E0B7D0DF9107
:102F2000CF911F910895CF93DF93482F50E0CA01AE
:102F300088589E4FFC0134914E5C5E4FFA0184919B
:102F4000882369F190E0880F991FFC01EC51FF4F35
:102F5000A591B491FC01E250FF4FC591D491662335
:102F600051F42FB7F8948C91932F909589238C93DB
:102F7000888189230BC0623061F42FB7F8948C915B
:102F8000932F909589238C938881832B88832FBFDF
:102F900006C09FB7F8948C91832B8C939FBFDF91D1
:102FA000CF910895893009F449C08A30A0F4843063
:102FB00051F1853040F4823079F1833000F5813071
:102FC00009F063C026C0873079F1883098F58630E3
:102FD00009F05BC025C08D3009F442C08E3028F462
:102FE0008B30B1F18C30C0F52DC0803109F442C076
:102FF000813109F445C08F3009F047C037C0809156
:1030000080008F7703C0809180008F7D8093800047
:10301000089584B58F7702C084B58F7D84BD0895EF
:103020008091B0008F7703C08091B0008F7D809336
:10303000B0000895809190008F7707C08091900034
:103040008F7D03C080919000877F809390000895CA
:103050008091A0008F7707C08091A0008F7D03C072
:103060008091A000877F8093A00008958091200127
:103070008F7703C0809120018F7D80932001089578
:1030800080912001877F809320010895FF920F9304
:103090001F93F62E482F50E0CA0182549E4FFC0128
:1030A0002491CA0188589E4FFC0114914E5C5E4FDA
:1030B000FA0104910023C1F0222311F0822F72DF64
:1030C000E02FF0E0EE0FFF1FE250FF4FA591B4910B
:1030D0009FB7F894FF2021F48C911095812302C0B2
:1030E0008C91812B8C939FBF1F910F91FF9008951E
:1030F0000F931F93482F50E0CA0182549E4FFC014A
:103100002491CA0188589E4FFC0104914E5C5E4F89
:10311000FA011491112319F420E030E014C02223A5
:1031200011F0822F3FDF812F90E0880F991F885E7A
:103130009E4FFC01A591B4918C9120E030E080235A
:1031400011F021E030E0C9011F910F910895089519
:103150001F920F920FB60F920BB60F9211242F935E
:103160003F934F938F939F93EF93FF938091C00072
:1031700082FD1DC04091C60020917B0630917C06E7
:103180002F5F3F4F2F73307080917D0690917E06A8
:103190002817390771F0E0917B06F0917C06E55C19
:1031A000F94F408330937C0620937B0602C08091C8
:1031B000C600FF91EF919F918F914F913F912F9179
:1031C0000F900BBE0F900FBE0F901F901895089593
:1031D0001F920F920FB60F920BB60F9211242F93DE
:1031E0003F934F938F939F93EF93FF938091C800EA
:1031F00082FD1DC04091CE0020910307309104074D
:103200002F5F3F4F2F733070809105079091060715
:103210002817390771F0E0910307F0910407ED5387
:10322000F94F4083309304072093030702C0809135
:10323000CE00FF91EF919F918F914F913F912F91F0
:103240000F900BBE0F900FBE0F901F901895089512
:103250001F920F920FB60F920BB60F9211242F935D
:103260003F934F938F939F93EF93FF938091D00061
:1032700082FD1DC04091D60020918B0730918C07B4
:103280002F5F3F4F2F73307080918D0790918E0785
:103290002817390771F0E0918B07F0918C07E55BF7
:1032A000F84F408330938C0720938B0702C08091A6
:1032B000D600FF91EF919F918F914F913F912F9168
:1032C0000F900BBE0F900FBE0F901F901895089592
:1032D0001F920F920FB60F920BB60F9211242F93DD
:1032E0003F934F938F939F93EF93FF938091300180
:1032F00082FD1DC0409136012091130830911408C1
:103300002F5F3F4F2F7330708091150890911608F2
:103310002817390771F0E0911308F0911408ED5265
:10332000F84F4083309314082093130802C0809113
:103330003601FF91EF919F918F914F913F912F9186
:103340000F900BBE0F900FBE0F901F901895E0913D
:103350006708F0916808E05CFF4F819191912081AE
:103360003181805C9F4F821B930B60E470E04ED4F0
:10337000892B09F0ECDEE0918908F0918A08E05C85
:10338000FF4F8191919120813181805C9F4F821B01
:10339000930B60E470E03AD4892B09F018DFE091D8
:1033A000AB08F091AC08E05CFF4F819191912081D6
:1033B0003181805C9F4F821B930B60E470E026D4C8
:1033C000892B09F044DFE091CD08F091CE08E05C54
:1033D000FF4F8191919120813181805C9F4F821BB1
:1033E000930B60E470E012D4892B09F070CF08953C
:1033F0001F920F920FB60F920BB60F9211242F93BC
:103400003F938F939F93EF93FF932091BF0630914B
:10341000C0068091C1069091C2062817390731F481
:103420008091C1008F7D8093C10014C0E091C106DE
:10343000F091C206E158F94F20818091C106909128
:10344000C20601968F7390709093C2068093C10656
:103450002093C600FF91EF919F918F913F912F9103
:103460000F900BBE0F900FBE0F901F9018951F92DC
:103470000F920FB60F920BB60F9211242F933F931A
:103480008F939F93EF93FF932091470730914807C5
:103490008091490790914A072817390731F48091A4
:1034A000C9008F7D8093C90014C0E0914907F09155
:1034B0004A07E95FF84F20818091490790914A07B8
:1034C00001968F73907090934A07809349072093D9
:1034D000CE00FF91EF919F918F913F912F910F908F
:1034E0000BBE0F900FBE0F901F9018951F920F925A
:1034F0000FB60F920BB60F9211242F933F938F9319
:103500009F93EF93FF932091CF073091D007809145
:10351000D1079091D2072817390731F48091D10053
:103520008F7D8093D10014C0E091D107F091D20734
:10353000E157F84F20818091D1079091D2070196F1
:103540008F7390709093D2078093D1072093D60009
:10355000FF91EF919F918F913F912F910F900BBE13
:103560000F900FBE0F901F9018951F920F920FB6DD
:103570000F920BB60F9211242F933F938F939F932B
:10358000EF93FF9320915708309158088091590884
:1035900090915A082817390731F4809131018F7DB5
:1035A0008093310114C0E0915908F0915A08E95E06
:1035B000F74F20818091590890915A0801968F7396
:1035C000907090935A088093590820933601FF9188
:1035D000EF919F918F913F912F910F900BBE0F9084
:1035E0000FBE0F901F901895AF92BF92DF92EF928F
:1035F000FF920F931F93CF93DF93EC017A018B011E
:10360000DD24403081EE580780E0680780E07807CD
:1036100011F0DD24D39491E0A92EB12CEC89FD8921
:10362000DD2069F0C50108A002C0880F991F0A9427
:10363000E2F7808360E079E08DE390E005C01082DE
:1036400060E874E88EE190E0A8019701F2D2215081
:10365000304040405040569547953795279580E13A
:103660002030380720F0DD2011F0DD24D7CFE889A5
:10367000F9893083EA89FB89208319A2EE89FF89C1
:10368000408121E030E0C9010C8C02C0880F991FF5
:103690000A94E2F7482B4083EE89FF894081C901F3
:1036A0000D8C02C0880F991F0A94E2F7482B4083C3
:1036B000EE89FF894081C9010E8C02C0880F991FD5
:1036C0000A94E2F7482B4083EE89FF8980810F8CB2
:1036D00002C0220F331F0A94E2F72095282320838B
:1036E000DF91CF911F910F91FF90EF90DF90BF90EE
:1036F000AF900895DC011C96ED91FC911D97E05C64
:10370000FF4F8191919120813181805C9F4F821B7D
:10371000930B60E470E07AC2DC011C96ED91FC91A1
:103720001D97E05CFF4F20813181E054F040DF01C4
:10373000AE5BBF4F8D919C9111972817390719F4F3
:103740002FEF3FEF07C08D919C91E80FF91F80810B
:10375000282F30E0C9010895DC011C96ED91FC9101
:103760001D97E05CFF4F20813181E054F040DF0184
:10377000AE5BBF4F8D919C9111972817390719F4B3
:103780002FEF3FEF10C08D919C911197E80FF91F1B
:1037900020818D919C91119701968F739070119655
:1037A0009C938E9330E0C9010895DC0191968C9131
:1037B0009197882339F05496ED91FC91559780812B
:1037C00086FFF9CF91961C920895CF93DF93EC0179
:1037D000EE85FF85E05CFF4F20813181E054F040B1
:1037E0002F5F3F4F2F733070DF01AE5BBF4F8D9166
:1037F0009C91119728173907D1F3E05CFF4F808126
:103800009181E054F040E80FF91F6083EE85FF8559
:10381000E05CFF4F31832083EE89FF89208181E0C6
:1038200090E00F8C02C0880F991F0A94E2F7282BB2
:10383000208381E089A3EC89FD8980818064808375
:1038400081E090E0DF91CF9108951F9310925E0880
:1038500010925D0828EE33E040E050E020935F08CE
:1038600030936008409361085093620864ED72E001
:1038700070935C0860935B088BE396E09093680814
:10388000809367088FE796E090936A0880936908B1
:1038900085EC90E090936C0880936B0884EC90E04A
:1038A00090936E0880936D0880EC90E09093700880
:1038B00080936F0881EC90E0909372088093710878
:1038C00082EC90E0909374088093730886EC90E00B
:1038D000909376088093750814E010937708B3E00E
:1038E000B0937808A7E0A0937908F5E0F0937A0800
:1038F000E1E0E0937B081092800810927F0820930B
:103900008108309382084093830850938408709311
:103910007E0860937D0883EC96E090938A088093FC
:10392000890887E097E090938C0880938B088DEC52
:1039300090E090938E0880938D088CEC90E09093AB
:10394000900880938F0888EC90E090939208809381
:10395000910889EC90E090939408809393088AEC06
:1039600090E090939608809395088EEC90E0909369
:1039700098088093970810939908B0939A08A09399
:103980009B08F0939C08E0939D081092A208109267
:10399000A1082093A3083093A4084093A50850934E
:1039A000A6087093A00860939F088BE497E090931B
:1039B000AC088093AB088FE897E09093AE088093B3
:1039C000AD0885ED90E09093B0088093AF0884ED4A
:1039D00090E09093B2088093B10880ED90E09093CE
:1039E000B4088093B30881ED90E09093B60880937B
:1039F000B50882ED90E09093B8088093B70886ED03
:103A000090E09093BA088093B9081093BB08B093E4
:103A1000BC08A093BD08F093BE08E093BF081092C5
:103A2000C4081092C3082093C5083093C608409379
:103A3000C7085093C8087093C2086093C10883ED0B
:103A400097E09093CE088093CD0887E198E090931B
:103A5000D0088093CF0885E391E09093D2088093BB
:103A6000D10884E391E09093D4088093D30880E355
:103A700091E09093D6088093D50881E391E09093EC
:103A8000D8088093D70882E391E09093DA08809376
:103A9000D90886E391E09093DC088093DB081093CB
:103AA000DD08B093DE08A093DF08F093E008E09310
:103AB000E1081F9108950895CF93DF93C0D8FBDFED
:103AC0000E94CE03C7EAD9E10E9455072097E1F38F
:103AD0003EDCFACFCF92DF92EF92FF920F931F93CB
:103AE000CF93DF937C016B018A01C0E0D0E00FC06F
:103AF000D6016D916D01D701ED91FC910190F0819E
:103B0000E02DC7011995C80FD91F015010400115AC
:103B1000110571F7CE01DF91CF911F910F91FF90A9
:103B2000EF90DF90CF9008952F923F924F925F9247
:103B30006F927F928F929F92AF92BF92CF92DF92BD
:103B4000EF92FF920F931F93DF93CF93CDB7DEB722
:103B50003B014C0119012A016E897F89888D998D5D
:103B60006A197B098C099D09621A730A840A950AED
:103B7000A401930120D0E218F30804091509A80153
:103B8000970179D02A0D3B1D4C1D5D1DB901CA015D
:103B9000CF91DF911F910F91FF90EF90DF90CF9029
:103BA000BF90AF909F908F907F906F905F904F905D
:103BB0003F902F900895629FD001739FF001829FE4
:103BC000E00DF11D649FE00DF11D929FF00D839FAC
:103BD000F00D749FF00D659FF00D9927729FB00D49
:103BE000E11DF91F639FB00DE11DF91FBD01CF015C
:103BF00011240895991B79E004C0991F961708F0C5
:103C0000961B881F7A95C9F78095089597FB092E12
:103C100007260AD077FD04D049D006D000201AF438
:103C2000709561957F4F0895F6F7909581959F4F18
:103C30000895A1E21A2EAA1BBB1BFD010DC0AA1FED
:103C4000BB1FEE1FFF1FA217B307E407F50720F005
:103C5000A21BB30BE40BF50B661F771F881F991F80
:103C60001A9469F760957095809590959B01AC01C9
:103C7000BD01CF01089597FB092E05260ED057FDF3
:103C800004D0D7DF0AD0001C38F450954095309509
:103C900021953F4F4F4F5F4F0895F6F790958095D0
:103CA000709561957F4F8F4F9F4F0895AA1BBB1B47
:103CB00051E107C0AA1FBB1FA617B70710F0A61B2C
:103CC000B70B881F991F5A95A9F780959095BC014D
:103CD000CD010895EE0FFF1F0590F491E02D19948A
:043CE000F894FFCF86
:103CE400556E6B6E6F776E2070696E206D6F6465B4
:103CF400005374616E646172644669726D617461CB
:103D04002E696E6F0049324320526561642045720A
:103D1400726F723A20546F6F206D616E79206279F0
:103D2400746573207265636569766564004932431E
:103D34002052656164204572726F723A20546F6F2D
:103D4400206665772062797465732072656365699E
:103D54007665640031302D62697420616464726533
:103D64007373696E67206D6F6465206973206E6F6D
:103D7400742079657420737570706F727465640053
:103D8400746F6F206D616E792071756572696573EA
:103D9400002E637070001300FF8000E7080000012C
:103DA40000000000E90DB90D720D7B0D900DA10D01
:103DB40000000000E51B6A1D7A1BAC1B8C1BD51B85
:00000001FF
